:100000000C9439000C9456000C9456000C94560035
:100010000C9456000C9456000C9456000C94560008
:100020000C9456000C9456000C9456000C945600F8
:100030000C9456000C9456000C9456000C945600E8
:100040000C9456000C9456000C9456000C945600D8
:100050000C94560005A84CCDB2D44EB93836A9023E
:100060000C50B9918688083CA6AAAA2ABE000000B6
:10007000803F11241FBECFE5D8E0DEBFCDBF10E02A
:10008000A0E6B0E0EEE0F5E102C005900D92A236E8
:10009000B107D9F710E0A2E6B0E001C01D92A23688
:1000A000B107E1F70E940E070C94850A0C9400003A
:1000B000843008F077C0683008F076C0423008F02D
:1000C00075C0813011F1813030F08230C1F1833060
:1000D00009F06EC04EC02AB381E090E0062E02C047
:1000E000880F991F0A94E2F7809582238ABB2AB36E
:1000F000842F90E0AC0102C0440F551F6A95E2F7CF
:10010000BA01622B6ABB81E0089587B3E1E0F0E0B9
:10011000062E02C0EE0FFF1F0A94E2F7E095E823D7
:10012000E7BB27B3842F90E0AC0102C0440F551FFA
:100130006A95E2F7BA01622B67BB81E0089584B348
:10014000E1E0F0E0062E02C0EE0FFF1F0A94E2F796
:10015000E095E823E4BB24B3842F90E0AC0102C017
:10016000440F551F6A95E2F7BA01622B64BB81E028
:10017000089521B381E090E0062E02C0880F991FF8
:100180000A94E2F78095822381BB51B3242F30E09B
:10019000C90102C0880F991F6A95E2F7852B81BBC0
:1001A00081E0089582E0089582E0089582E0089554
:1001B00081E00895843008F077C0683008F076C098
:1001C000423008F075C0813011F1813030F082305A
:1001D000C1F1833009F06EC04EC02BB381E090E0D6
:1001E000062E02C0880F991F0A94E2F78095822399
:1001F0008BBB2BB3842F90E0AC0102C0440F551F82
:100200006A95E2F7BA01622B6BBB81E0089588B36F
:10021000E1E0F0E0062E02C0EE0FFF1F0A94E2F7C5
:10022000E095E823E8BB28B3842F90E0AC0102C03E
:10023000440F551F6A95E2F7BA01622B68BB81E053
:10024000089585B3E1E0F0E0062E02C0EE0FFF1F37
:100250000A94E2F7E095E823E5BB25B3842F90E00C
:10026000AC0102C0440F551F6A95E2F7BA01622B38
:1002700065BB81E0089522B381E090E0062E02C0C4
:10028000880F991F0A94E2F78095822382BB52B3AC
:10029000242F30E0C90102C0880F991F6A95E2F748
:1002A000852B82BB81E0089582E0089582E0089565
:1002B00082E0089581E008958430A8F4813051F0FF
:1002C000813028F0823049F0833079F409C06ABB6C
:1002D00081E0089567BB81E0089564BB81E00895E3
:1002E00061BB81E0089582E0089581E00895843043
:1002F000A8F4813051F0813028F0823049F0833009
:1003000079F409C06BBB81E0089568BB81E0089572
:1003100065BB81E0089562BB81E0089582E00895A5
:1003200081E00895843008F045C0683008F044C08A
:100330008130B1F0813030F0823001F1833009F04A
:100340003DC02AC02BB381E090E0AC0102C0440F55
:10035000551F6A95E2F7BA0162276BBB81E00895E9
:1003600028B381E090E0AC0102C0440F551F6A95AC
:10037000E2F7BA01622768BB81E0089525B381E006
:1003800090E0AC0102C0440F551F6A95E2F7BA0134
:10039000622765BB81E0089522B381E090E0AC0163
:1003A00002C0440F551F6A95E2F7BA01622762BB8B
:1003B00081E0089582E0089582E0089581E0089543
:1003C000843098F5683098F5813089F0813028F0D4
:1003D0008230B9F0833069F51EC029B330E0C9011D
:1003E00002C0959587956A95E2F78170089526B3C6
:1003F00030E0C90102C0959587956A95E2F7817052
:10040000089523B330E0C90102C0959587956A9598
:10041000E2F78170089520B330E0C90102C09595DC
:1004200087956A95E2F78170089582E0089582E0E9
:10043000089580E00895843088F4813049F0813057
:1004400028F0823039F0833059F406C089B308951A
:1004500086B3089583B3089580B3089582E0089524
:1004600080E00895CF92DF92EF92FF920F931F9357
:10047000CF93DF9300D000D0CDB7DEB794E099835F
:1004800095E09A8396E09B8397E09C837E01089495
:10049000E11CF11C00E010E0C82EDD24F7016191A1
:1004A0007F01A601002E02C0559547950A94E2F7F8
:1004B000417080E00E94DA000F5F1F4F0430110589
:1004C00069F70F900F900F900F90DF91CF911F91D0
:1004D0000F91FF90EF90DF90CF90089580E063E060
:1004E00041E00E94DA0083EF91E00197F1F700C04C
:1004F000000080E063E040E00E94DA00089580E0C0
:1005000061E041E00E94580080E062E041E00E942A
:10051000580080E063E041E00E94580080E064E021
:1005200041E00E94580080E065E041E00E945800F0
:1005300080E066E041E00E94580080E067E041E032
:100540000E94580081E00895CF93C82F80E061E0B9
:1005500040E00E94DA0080E062E040E00E94DA00C1
:100560008C2F82958F700E9432020E946E028C2F17
:100570000E9432020E946E0281E0CF91089581E0D4
:100580000E94A40283EF91E00197F1F700C0000000
:1005900081E008950E947F028FE097E20197F1F7D2
:1005A00000C0000082E00E9432020E946E0282E0DF
:1005B0000E9432020E946E028CE00E9432020E946F
:1005C0006E028FE00E94A4020E94BF0281E00895A3
:1005D000CF93C82F80E061E041E00E94DA0080E024
:1005E00062E040E00E94DA008C2F82958F700E94BA
:1005F00032020E946E028C2F0E9432020E946E0212
:1006000081E0CF9108950F931F93CF938C010097B2
:1006100081F0FC018081882371F0C0E00E94E80233
:10062000CF5FF801EC0FF11D80818823B9F781E0DD
:1006300003C083E001C081E0CF911F910F91089525
:100640004F925F926F927F928F929F92AF92BF92E2
:10065000CF92DF92EF92FF920F931F93CF936B0194
:100660007C0199235CF48DE20E94E802F094E0940E
:10067000D094C094C11CD11CE11CF11CC114D10444
:10068000E104F10429F160E070E0CB010F2EFAE003
:100690008F2EF0E09F2EF0E0AF2EF0E0BF2EF02D79
:1006A000A50194010E94290A2B013C01C701B60152
:1006B0000E946A0A640D751D861D971DC22ED32ED9
:1006C000E42EF52EC114D104E104F10449F703C06E
:1006D00060E070E0CB010F2EFAE0EF2EF0E0FF2E8D
:1006E000F0E00F2FF0E01F2FF02DA80197010E94DE
:1006F000480A822EC32E442EC52F862F805D0E946D
:10070000E802682D7C2D842D9C2F611571058105D3
:10071000910559F781E0CF911F910F91FF90EF90D4
:10072000DF90CF90BF90AF909F908F907F906F9011
:100730005F904F9008958F929F92AF92BF92CF9209
:10074000DF92EF92FF920F931F93CF93DF936B0192
:100750007C0120E030E0A9010E94AE0788233CF430
:100760008DE20E94E802F7FAF094F7F8F094C701DE
:10077000B6010E941F08022F132FD42FC52FB62EAB
:10078000A72E982E892E622F712F8D2F9C2F0E94BD
:1007900020038EE20E94E802202F312F4D2F5C2F84
:1007A0006B2D7A2D892D982D0E9480089B01AC011C
:1007B000C701B6010E94490720E030E048EC52E44E
:1007C0000E9443090E94540870E080E090E00E947B
:1007D000200381E0DF91CF911F910F91FF90EF9067
:1007E000DF90CF90BF90AF909F908F90089582E060
:1007F0000E94A40281E00895623050F46295660F71
:10080000660F607C860F80680E94A40281E00895D4
:1008100082E00895DF92EF92FF920F931F93CF93A0
:10082000DF93082FF92E162FE42ED22E862F880F55
:10083000880F880F80640E94A402C02FDF2D00E083
:1008400089910E94E8020F5F0830D1F78E2D6D2D3F
:100850000E94FC03812F0E94E80280E0DF91CF918B
:100860001F910F91FF90EF90DF900895CF93DF934A
:10087000D82F882339F0C0E080E10E94A402CF5F26
:10088000CD17D1F780E20E94E80280E10E94A40225
:1008900081E0DF91CF910895982F9154963010F414
:1008A00087530895803311F08053089580E00895B0
:1008B000CF93DF930F92CDB7DEB71982CE010196A9
:1008C0000E943C0789810E944C04182F682F70E019
:1008D00080E090E00E9420030F2EF0E6EF2EF0E083
:1008E000FF2EF02DC7010E940303CE0101960E9446
:1008F0003C0789810E944C04110F912F990F990F89
:10090000190F180F612F70E080E090E00E94200323
:10091000C7010E940303CE0101960E943C07110FFC
:10092000812F880F880F180F89810E944C04180F9F
:10093000612F70E080E090E00E9420038CE30E9431
:10094000430784E30E94430782E30E94430789E24E
:100950000E94430781E20E9443078EE20E94430700
:100960008CE20E94430785E20E94430780E0212F2A
:1009700090E004C085BB8F5F01C0892F8117D0F341
:100980001123D9F3822F85BB8150E9F7892FF6CF48
:10099000CF93DF930F92CDB7DEB71982CE010196C8
:1009A0000E943C0789810E944C04182F682F70E038
:1009B00080E090E00E9420030F2EF0E6EF2EF0E0A2
:1009C000FF2EF02DC7010E940303CE0101960E9465
:1009D0003C0789810E944C04110F912F990F990FA8
:1009E000190F180F612F70E080E090E00E94200343
:1009F000C7010E940303CE0101960E943C07110F1C
:100A0000812F880F880F180F89810E944C04180FBE
:100A1000612F70E080E090E00E9420038CE30E9450
:100A2000430783E30E94430784E30E94430781E274
:100A30000E94430789E20E94430782E30E94430722
:100A400083E20E94430781E20E94430783E30E94FE
:100A5000430785E20E944307212F2E5B912F9D576C
:100A6000812F8C5315BAE1EEF4E03197F1F700C015
:100A7000000025BBE1EEF4E03197F1F700C0000083
:100A800095BBE1EEF4E03197F1F700C0000085BBC3
:100A9000E1EEF4E03197F1F700C0000015BBF1E2A0
:100AA000FA95F1F70000DECFCF93DF930F92CDB729
:100AB000DEB71982CE0101960E943C0789810E940F
:100AC0004C04182FCE0101960E943C0789810E9498
:100AD0004C04110F912F990F990F190F012F080F27
:100AE000602F70E080E090E00E9420030F2EF0E67F
:100AF000EF2EF0E0FF2EF02DC7010E940303CE0180
:100B000001960E943C0789810E944C04182F682F8F
:100B100070E080E090E00E942003C7010E94030380
:100B2000CE0101960E943C0789810E944C04110F5E
:100B3000912F990F990F190F180F612F70E080E016
:100B400090E00E942003C7010E940303CE0101969A
:100B50000E943C07110F812F880F880F180F898181
:100B60000E944C04180F612F70E080E090E00E941A
:100B700020038CE30E94430783E30E94430781E341
:100B80000E94430785E30E94430781E20E944307D6
:100B900082E30E94430785E20E944307033379F40E
:100BA00015BB83EC99E00197F1F700C0000015BA7E
:100BB00083EC99E00197F1F700C00000F1CF033614
:100BC00079F415BB81EE94E00197F1F700C00000C5
:100BD00015BA81EE94E00197F1F700C00000F1CF63
:100BE00015BB83EC99E00197F1F700C0000015BA3E
:100BF00083EC99E00197F1F700C00000F1CFCF93AB
:100C0000DF930F92CDB7DEB71982CE0101960E9415
:100C10003C0789810E944C04182FCE0101960E9446
:100C20003C0789810E944C04110F912F990F990F55
:100C3000190F810F682F70E080E090E00E94200380
:100C400080E690E00E940303CE0101960E943C07DB
:100C500089810E944C04182F682F70E080E090E09A
:100C60000E9420038CE30E94430702E083E30E947A
:100C7000430789E20E9443078EE20E94430785E210
:100C80000E94430783E70E94430789E60E944307C7
:100C90008EE60E94430785E60E944307015031F724
:100CA000123009F449C0EE24FF24DD2410E0A2C074
:100CB0008E2D9F2DA02FBD2DBC01CD012BED3FE032
:100CC00049E450E40E94430920E030E044E353E467
:100CD0000E94B2070E94A6099B01AC010E944A072C
:100CE00020E030E040E050E40E944A0720E030E09D
:100CF0004FE753E40E94430920E030E040E251E432
:100D00000E94B2070E94540865BB8DEA90E60197E5
:100D1000F1F700C000008E2D9F2DA02FBD2DBC012E
:100D2000CD0120E030E040E251E40E944A07E62E87
:100D3000F72E082FD92E05C0EE24FF2400E0DD2475
:100D400010E08E2D9F2DA02FBD2DBC01CD0120E0E8
:100D500030E044EB53E40E94AE0718160CF0A8CF25
:100D6000E12EF12E012FD12EECCF8E2D9F2DA02F15
:100D7000BD2DBC01CD012BED3FE049E450E40E94C4
:100D8000430920E030E044E353E40E94B2070E94AC
:100D9000A60920E030E040EA50E40E94430920E048
:100DA00030E040EA50E40E944A0720E030E04FE79C
:100DB00053E40E94430920E030E040E251E40E9405
:100DC000B2070E94540865BB8DEB9AE00197F1F7DA
:100DD00000C000008E2D9F2DA02FBD2DBC01CD0188
:100DE00020E030E040E251E40E944A07E62EF72E70
:100DF000082FD92E8E2D9F2DA02FBD2DBC01CD01EA
:100E000020E030E044EB53E40E94AE0718160CF0EB
:100E1000ACCFE12EF12E012FD12EECCFCF93DF936B
:100E20000F92CDB7DEB719820E9434070E94CA0222
:100E30008FEF84BB87BBCE0101960E943C0789815E
:100E4000813761F0823718F48936A9F705C08237F7
:100E500039F0843781F706C00E94FF050E945405CF
:100E60000E9458040E94C80486E880BD86E089B9C3
:100E7000549A539A81E008955F9BFECF2CB1FC01F8
:100E8000208381E008959BB195FFFDCF8CB981E06F
:100E900008955058BB27AA270ED0BBC1ACD130F063
:100EA000B1D120F031F49F3F11F41EF491C10EF442
:100EB000E095E7FB87C1E92FBDD180F3BA17620740
:100EC00073078407950718F071F49EF5D5C10EF4E9
:100ED000E0950B2EBA2FA02D0B01B90190010C014A
:100EE000CA01A0011124FF27591B99F0593F50F462
:100EF000503E68F11A16F040A22F232F342F4427BA
:100F0000585FF3CF469537952795A795F0405395B1
:100F1000C9F77EF41F16BA0B620B730B840BBAF081
:100F20009150A1F0FF0FBB1F661F771F881FC2F7EC
:100F30000EC0BA0F621F731F841F48F48795779500
:100F40006795B795F7959E3F08F0B3CF9395880FB7
:100F500008F09927EE0F9795879508950FD108F41B
:100F600081E008950CD055C14DD140F044D130F00E
:100F700021F45F3F19F026C151117FC129C15AD117
:100F800098F39923C9F35523B1F3951B550BBB2750
:100F9000AA2762177307840738F09F5F5F4F220FFD
:100FA000331F441FAA1FA9F333D00E2E3AF0E0E8F6
:100FB00030D091505040E695001CCAF729D0FE2F42
:100FC00027D0660F771F881FBB1F261737074807D4
:100FD000AB07B0E809F0BB0B802DBF01FF2793588A
:100FE0005F4F2AF09E3F510568F0ECC046C15F3F5D
:100FF000ECF3983EDCF3869577956795B795F79572
:101000009F5FC9F7880F911D9695879597F9089569
:10101000E1E0660F771F881FBB1F62177307840705
:10102000BA0720F0621B730B840BBA0BEE1F88F714
:10103000E0950895BEE304D008F490E80895BFE376
:1010400022273327A901FED058F19F5740F1B91745
:1010500038F1BFE3B91B9927B8503AF4660F771FF0
:10106000881F991FB395D2F316C0B8504AF0232FAA
:10107000342F452F562F672F782F8827B850BAF76F
:10108000B85F49F086957795679557954795379559
:101090002795BA95B9F70EF49ED088940895889450
:1010A00060E070E0CB010895CDD088F09F5790F0BC
:1010B000B92F9927B751A0F0D1F0660F771F881F7D
:1010C000991F1AF0BA95C9F712C0B13081F0D4D087
:1010D000B1E00895D1C0672F782F8827B85F39F025
:1010E000B93FCCF3869577956795B395D9F73EF4DC
:1010F00090958095709561957F4F8F4F9F4F089584
:10110000E894F92F96EBFF2381F0121613061406CC
:10111000440B9395F695879577956795579540403D
:10112000FF23B9F71BC099270895882351F49850DD
:10113000D2F7872B762F652F542F432F322F20E0A5
:10114000B1F3121613061406440B88233AF09A954D
:10115000440F551F661F771F881FCAF755234AF48F
:10116000440F551F11F460FF04C06F5F7F4F8F4F16
:101170009F4F880F9695879597F90895990F0008C6
:10118000550FAA0BE0E8FEEF16161706E807F90759
:10119000C0F012161306E407F50798F0621B730BF4
:1011A000840B950B39F40A2661F0232B242B252B75
:1011B00021F408950A2609F4A140A6958FEF811D18
:1011C000811D089597F99F6780E870E060E00895B9
:1011D0009FEF80EC0895909580957095609550955F
:1011E0004095309521953F4F4F4F5F4F6F4F7F4F49
:1011F0008F4F9F4F089500240A941616170618065D
:101200000906089500240A9412161306140605060A
:101210000895092E0394000C11F4882352F0BB0F9B
:1012200040F4BF2B11F460FF04C06F5F7F4F8F4FFE
:101230009F4F089557FD9058440F551F59F05F3F39
:1012400071F04795880F97FB991F61F09F3F79F0E8
:1012500087950895121613061406551FF2CF46956A
:10126000F1DF08C0161617061806991FF1CF8695EC
:101270007105610508940895E894BB2766277727D0
:10128000CB0197F908950BD0C4CFB5DF28F0BADFB2
:1012900018F0952309F096CF9BCF1124EECFCADF2B
:1012A000A0F3959FD1F3950F50E0551F629FF00179
:1012B000729FBB27F00DB11D639FAA27F00DB11DD2
:1012C000AA1F649F6627B00DA11D661F829F22275B
:1012D000B00DA11D621F739FB00DA11D621F839FE2
:1012E000A00D611D221F749F3327A00D611D231FB8
:1012F000849F600D211D822F762F6A2F11249F5706
:1013000050408AF0E1F088234AF0EE0FFF1FBB1F28
:10131000661F771F881F91505040A9F79E3F5105C7
:1013200070F050CFAACF5F3FECF3983EDCF3869588
:1013300077956795B795F795E7959F5FC1F7FE2B72
:10134000880F911D9695879597F908959F9305D0DD
:101350000F9007FCEE5F28C03BCF74DFE8F3E89402
:10136000E0E0BB279F57F0F02AED3FE049EC06C0D4
:10137000EE0FBB0F661F771F881F28F0B23A620777
:101380007307840728F0B25A620B730B840BE39542
:101390009A9572F7803830F49A95BB0F661F771FC5
:1013A000881FD2F7904813C0EF93E0FF06C0A2EA6F
:1013B0002AED3FE049EC5FEB7EDD2BDF0F900394DD
:1013C00001FC9058E4E5F0E00EC09F3F31F09150F1
:1013D00020F4879577956795B795880F911D969519
:1013E000879597F908959F938F937F936F93FF93BA
:1013F000EF939B01AC0147DFEF91FF9105D02F9157
:101400003F914F915F913FCFDF93CF931F930F9306
:10141000FF92EF92DF927B018C01689405C0DA2E77
:10142000EF013DDFFE01E894A591259135914591AD
:101430005591AEF3EF013FDDFE019701A801DA946B
:1014400079F7DF90EF90FF900F911F91CF91DF918F
:101450000895629FD001739FF001829FE00DF11DFE
:10146000649FE00DF11D929FF00D839FF00D749F1E
:10147000F00D659FF00D9927729FB00DE11DF91FCA
:10148000639FB00DE11DF91FBD01CF011124089527
:10149000A1E21A2EAA1BBB1BFD010DC0AA1FBB1F78
:1014A000EE1FFF1FA217B307E407F50720F0A21BEA
:1014B000B30BE40BF50B661F771F881F991F1A9457
:1014C00069F760957095809590959B01AC01BD0181
:1014D000CF01089597FB092E05260ED057FD04D0A5
:1014E000D7DF0AD0001C38F45095409530952195EF
:1014F0003F4F4F4F5F4F0895F6F790958095709549
:0E15000061957F4F8F4F9F4F0895F894FFCF56
:02150E002000BB
:00000001FF
